{
  "_format": "hh-sol-artifact-1",
  "contractName": "MyEpicNFT",
  "sourceName": "contracts/MyEpicNFT.sol",
  "abi": [
    {
      "inputs": [],
      "stateMutability": "nonpayable",
      "type": "constructor"
    },
    {
      "anonymous": false,
      "inputs": [
        {
          "indexed": true,
          "internalType": "address",
          "name": "owner",
          "type": "address"
        },
        {
          "indexed": true,
          "internalType": "address",
          "name": "approved",
          "type": "address"
        },
        {
          "indexed": true,
          "internalType": "uint256",
          "name": "tokenId",
          "type": "uint256"
        }
      ],
      "name": "Approval",
      "type": "event"
    },
    {
      "anonymous": false,
      "inputs": [
        {
          "indexed": true,
          "internalType": "address",
          "name": "owner",
          "type": "address"
        },
        {
          "indexed": true,
          "internalType": "address",
          "name": "operator",
          "type": "address"
        },
        {
          "indexed": false,
          "internalType": "bool",
          "name": "approved",
          "type": "bool"
        }
      ],
      "name": "ApprovalForAll",
      "type": "event"
    },
    {
      "anonymous": false,
      "inputs": [
        {
          "indexed": false,
          "internalType": "address",
          "name": "sender",
          "type": "address"
        },
        {
          "indexed": false,
          "internalType": "uint256",
          "name": "tokenId",
          "type": "uint256"
        }
      ],
      "name": "NewEpicNFTMinted",
      "type": "event"
    },
    {
      "anonymous": false,
      "inputs": [
        {
          "indexed": true,
          "internalType": "address",
          "name": "from",
          "type": "address"
        },
        {
          "indexed": true,
          "internalType": "address",
          "name": "to",
          "type": "address"
        },
        {
          "indexed": true,
          "internalType": "uint256",
          "name": "tokenId",
          "type": "uint256"
        }
      ],
      "name": "Transfer",
      "type": "event"
    },
    {
      "inputs": [
        {
          "internalType": "address",
          "name": "to",
          "type": "address"
        },
        {
          "internalType": "uint256",
          "name": "tokenId",
          "type": "uint256"
        }
      ],
      "name": "approve",
      "outputs": [],
      "stateMutability": "nonpayable",
      "type": "function"
    },
    {
      "inputs": [
        {
          "internalType": "address",
          "name": "owner",
          "type": "address"
        }
      ],
      "name": "balanceOf",
      "outputs": [
        {
          "internalType": "uint256",
          "name": "",
          "type": "uint256"
        }
      ],
      "stateMutability": "view",
      "type": "function"
    },
    {
      "inputs": [
        {
          "internalType": "uint256",
          "name": "tokenId",
          "type": "uint256"
        }
      ],
      "name": "getApproved",
      "outputs": [
        {
          "internalType": "address",
          "name": "",
          "type": "address"
        }
      ],
      "stateMutability": "view",
      "type": "function"
    },
    {
      "inputs": [],
      "name": "getTotalNFTsMintedSoFar",
      "outputs": [
        {
          "internalType": "uint256",
          "name": "",
          "type": "uint256"
        }
      ],
      "stateMutability": "view",
      "type": "function"
    },
    {
      "inputs": [],
      "name": "getTotalSupply",
      "outputs": [
        {
          "internalType": "uint256",
          "name": "",
          "type": "uint256"
        }
      ],
      "stateMutability": "view",
      "type": "function"
    },
    {
      "inputs": [
        {
          "internalType": "address",
          "name": "owner",
          "type": "address"
        },
        {
          "internalType": "address",
          "name": "operator",
          "type": "address"
        }
      ],
      "name": "isApprovedForAll",
      "outputs": [
        {
          "internalType": "bool",
          "name": "",
          "type": "bool"
        }
      ],
      "stateMutability": "view",
      "type": "function"
    },
    {
      "inputs": [],
      "name": "makeAnEpicNFT",
      "outputs": [],
      "stateMutability": "nonpayable",
      "type": "function"
    },
    {
      "inputs": [],
      "name": "name",
      "outputs": [
        {
          "internalType": "string",
          "name": "",
          "type": "string"
        }
      ],
      "stateMutability": "view",
      "type": "function"
    },
    {
      "inputs": [
        {
          "internalType": "uint256",
          "name": "tokenId",
          "type": "uint256"
        }
      ],
      "name": "ownerOf",
      "outputs": [
        {
          "internalType": "address",
          "name": "",
          "type": "address"
        }
      ],
      "stateMutability": "view",
      "type": "function"
    },
    {
      "inputs": [
        {
          "internalType": "uint256",
          "name": "tokenId",
          "type": "uint256"
        }
      ],
      "name": "pickRandomColor",
      "outputs": [
        {
          "internalType": "string",
          "name": "",
          "type": "string"
        }
      ],
      "stateMutability": "view",
      "type": "function"
    },
    {
      "inputs": [
        {
          "internalType": "uint256",
          "name": "tokenId",
          "type": "uint256"
        }
      ],
      "name": "pickRandomFirstWord",
      "outputs": [
        {
          "internalType": "string",
          "name": "",
          "type": "string"
        }
      ],
      "stateMutability": "view",
      "type": "function"
    },
    {
      "inputs": [
        {
          "internalType": "uint256",
          "name": "tokenId",
          "type": "uint256"
        }
      ],
      "name": "pickRandomSecondWord",
      "outputs": [
        {
          "internalType": "string",
          "name": "",
          "type": "string"
        }
      ],
      "stateMutability": "view",
      "type": "function"
    },
    {
      "inputs": [
        {
          "internalType": "uint256",
          "name": "tokenId",
          "type": "uint256"
        }
      ],
      "name": "pickRandomThirdWord",
      "outputs": [
        {
          "internalType": "string",
          "name": "",
          "type": "string"
        }
      ],
      "stateMutability": "view",
      "type": "function"
    },
    {
      "inputs": [
        {
          "internalType": "address",
          "name": "from",
          "type": "address"
        },
        {
          "internalType": "address",
          "name": "to",
          "type": "address"
        },
        {
          "internalType": "uint256",
          "name": "tokenId",
          "type": "uint256"
        }
      ],
      "name": "safeTransferFrom",
      "outputs": [],
      "stateMutability": "nonpayable",
      "type": "function"
    },
    {
      "inputs": [
        {
          "internalType": "address",
          "name": "from",
          "type": "address"
        },
        {
          "internalType": "address",
          "name": "to",
          "type": "address"
        },
        {
          "internalType": "uint256",
          "name": "tokenId",
          "type": "uint256"
        },
        {
          "internalType": "bytes",
          "name": "_data",
          "type": "bytes"
        }
      ],
      "name": "safeTransferFrom",
      "outputs": [],
      "stateMutability": "nonpayable",
      "type": "function"
    },
    {
      "inputs": [
        {
          "internalType": "address",
          "name": "operator",
          "type": "address"
        },
        {
          "internalType": "bool",
          "name": "approved",
          "type": "bool"
        }
      ],
      "name": "setApprovalForAll",
      "outputs": [],
      "stateMutability": "nonpayable",
      "type": "function"
    },
    {
      "inputs": [
        {
          "internalType": "bytes4",
          "name": "interfaceId",
          "type": "bytes4"
        }
      ],
      "name": "supportsInterface",
      "outputs": [
        {
          "internalType": "bool",
          "name": "",
          "type": "bool"
        }
      ],
      "stateMutability": "view",
      "type": "function"
    },
    {
      "inputs": [],
      "name": "symbol",
      "outputs": [
        {
          "internalType": "string",
          "name": "",
          "type": "string"
        }
      ],
      "stateMutability": "view",
      "type": "function"
    },
    {
      "inputs": [
        {
          "internalType": "uint256",
          "name": "tokenId",
          "type": "uint256"
        }
      ],
      "name": "tokenURI",
      "outputs": [
        {
          "internalType": "string",
          "name": "",
          "type": "string"
        }
      ],
      "stateMutability": "view",
      "type": "function"
    },
    {
      "inputs": [],
      "name": "totalSupply",
      "outputs": [
        {
          "internalType": "uint256",
          "name": "",
          "type": "uint256"
        }
      ],
      "stateMutability": "view",
      "type": "function"
    },
    {
      "inputs": [
        {
          "internalType": "address",
          "name": "from",
          "type": "address"
        },
        {
          "internalType": "address",
          "name": "to",
          "type": "address"
        },
        {
          "internalType": "uint256",
          "name": "tokenId",
          "type": "uint256"
        }
      ],
      "name": "transferFrom",
      "outputs": [],
      "stateMutability": "nonpayable",
      "type": "function"
    }
  ],
  "bytecode": "0x608060405261045760085560405180610100016040528060d3815260200162004dd160d39139600990805190602001906200003c92919062000d83565b5060405180608001604052806056815260200162004ea460569139600a90805190602001906200006e92919062000d83565b506040518061012001604052806040518060400160405280600681526020017f507265747479000000000000000000000000000000000000000000000000000081525081526020016040518060400160405280600481526020017f457069630000000000000000000000000000000000000000000000000000000081525081526020016040518060400160405280600781526020017f416d617a696e670000000000000000000000000000000000000000000000000081525081526020016040518060400160405280600581526020017f537570657200000000000000000000000000000000000000000000000000000081525081526020016040518060400160405280600581526020017f537765657400000000000000000000000000000000000000000000000000000081525081526020016040518060400160405280600481526020017f486f6c790000000000000000000000000000000000000000000000000000000081525081526020016040518060400160405280600481526020017f566572790000000000000000000000000000000000000000000000000000000081525081526020016040518060400160405280600581526020017f4e6966747900000000000000000000000000000000000000000000000000000081525081526020016040518060400160405280600781526020017f536b657463687900000000000000000000000000000000000000000000000000815250815250600b9060096200029e92919062000e14565b506040518061014001604052806040518060400160405280600481526020017f526172650000000000000000000000000000000000000000000000000000000081525081526020016040518060400160405280600581526020017f4e6173747900000000000000000000000000000000000000000000000000000081525081526020016040518060400160405280600481526020017f536578790000000000000000000000000000000000000000000000000000000081525081526020016040518060400160405280600581526020017f537765657400000000000000000000000000000000000000000000000000000081525081526020016040518060400160405280600681526020017f536d61736879000000000000000000000000000000000000000000000000000081525081526020016040518060400160405280600681526020017f4c6f76656c79000000000000000000000000000000000000000000000000000081525081526020016040518060400160405280600481526020017f4461726b0000000000000000000000000000000000000000000000000000000081525081526020016040518060400160405280600581526020017f4c6967687400000000000000000000000000000000000000000000000000000081525081526020016040518060400160405280600581526020017f46756e6e7900000000000000000000000000000000000000000000000000000081525081526020016040518060400160405280600481526020017f4375746500000000000000000000000000000000000000000000000000000000815250815250600c90600a6200050992919062000e7b565b506040518061016001604052806040518060400160405280600381526020017f4d616e000000000000000000000000000000000000000000000000000000000081525081526020016040518060400160405280600381526020017f446f67000000000000000000000000000000000000000000000000000000000081525081526020016040518060400160405280600781526020017f546561636865720000000000000000000000000000000000000000000000000081525081526020016040518060400160405280600581526020017f4170706c6500000000000000000000000000000000000000000000000000000081525081526020016040518060400160405280600581526020017f536175636500000000000000000000000000000000000000000000000000000081525081526020016040518060400160405280600681526020017f4d6173746572000000000000000000000000000000000000000000000000000081525081526020016040518060400160405280600381526020017f4e4654000000000000000000000000000000000000000000000000000000000081525081526020016040518060400160405280600781526020017f4d6163626f6f6b0000000000000000000000000000000000000000000000000081525081526020016040518060400160405280600581526020017f53706f727400000000000000000000000000000000000000000000000000000081525081526020016040518060400160405280600681526020017f4d61736b6572000000000000000000000000000000000000000000000000000081525081526020016040518060400160405280600481526020017f506f6e7900000000000000000000000000000000000000000000000000000000815250815250600d90600b620007af92919062000ee2565b506040518061022001604052806040518060400160405280600781526020017f233334443339390000000000000000000000000000000000000000000000000081525081526020016040518060400160405280600781526020017f233038433241380000000000000000000000000000000000000000000000000081525081526020016040518060400160405280600781526020017f233630413546410000000000000000000000000000000000000000000000000081525081526020016040518060400160405280600781526020017f234638373137310000000000000000000000000000000000000000000000000081525081526020016040518060400160405280600781526020017f233943413341460000000000000000000000000000000000000000000000000081525081526020016040518060400160405280600781526020017f234246444246450000000000000000000000000000000000000000000000000081525081526020016040518060400160405280600781526020017f233342383246360000000000000000000000000000000000000000000000000081525081526020016040518060400160405280600781526020017f233144344544380000000000000000000000000000000000000000000000000081525081526020016040518060400160405280600781526020017f233831384346380000000000000000000000000000000000000000000000000081525081526020016040518060400160405280600781526020017f234638443831380000000000000000000000000000000000000000000000000081525081526020016040518060400160405280600781526020017f234638313844380000000000000000000000000000000000000000000000000081525081526020016040518060400160405280600781526020017f234634373242360000000000000000000000000000000000000000000000000081525081526020016040518060400160405280600781526020017f233842354346360000000000000000000000000000000000000000000000000081525081526020016040518060400160405280600781526020017f234334423546440000000000000000000000000000000000000000000000000081525081526020016040518060400160405280600781526020017f234135423446430000000000000000000000000000000000000000000000000081525081526020016040518060400160405280600781526020017f233034373835370000000000000000000000000000000000000000000000000081525081526020016040518060400160405280600781526020017f2346353945304200000000000000000000000000000000000000000000000000815250815250600e90601162000bb792919062000f49565b5034801562000bc557600080fd5b506040518060400160405280600881526020017f576f7264734e46540000000000000000000000000000000000000000000000008152506040518060400160405280600481526020017f574f524400000000000000000000000000000000000000000000000000000000815250816000908051906020019062000c4a92919062000d83565b50806001908051906020019062000c6392919062000d83565b50505062000cb16040518060400160405280601e81526020017f54686973206973206d79204e465420636f6e74726163742e20576f616821000081525062000cb760201b6200144a1760201c565b6200116a565b62000d578160405160240162000cce91906200107e565b6040516020818303038152906040527f41304fac000000000000000000000000000000000000000000000000000000007bffffffffffffffffffffffffffffffffffffffffffffffffffffffff19166020820180517bffffffffffffffffffffffffffffffffffffffffffffffffffffffff838183161783525050505062000d5a60201b60201c565b50565b60008151905060006a636f6e736f6c652e6c6f679050602083016000808483855afa5050505050565b82805462000d9190620010f4565b90600052602060002090601f01602090048101928262000db5576000855562000e01565b82601f1062000dd057805160ff191683800117855562000e01565b8280016001018555821562000e01579182015b8281111562000e0057825182559160200191906001019062000de3565b5b50905062000e10919062000fb0565b5090565b82805482825590600052602060002090810192821562000e68579160200282015b8281111562000e6757825182908051906020019062000e5692919062000d83565b509160200191906001019062000e35565b5b50905062000e77919062000fcf565b5090565b82805482825590600052602060002090810192821562000ecf579160200282015b8281111562000ece57825182908051906020019062000ebd92919062000d83565b509160200191906001019062000e9c565b5b50905062000ede919062000fcf565b5090565b82805482825590600052602060002090810192821562000f36579160200282015b8281111562000f3557825182908051906020019062000f2492919062000d83565b509160200191906001019062000f03565b5b50905062000f45919062000fcf565b5090565b82805482825590600052602060002090810192821562000f9d579160200282015b8281111562000f9c57825182908051906020019062000f8b92919062000d83565b509160200191906001019062000f6a565b5b50905062000fac919062000fcf565b5090565b5b8082111562000fcb57600081600090555060010162000fb1565b5090565b5b8082111562000ff3576000818162000fe9919062000ff7565b5060010162000fd0565b5090565b5080546200100590620010f4565b6000825580601f106200101957506200103a565b601f01602090049060005260206000209081019062001039919062000fb0565b5b50565b60006200104a82620010a2565b620010568185620010ad565b935062001068818560208601620010be565b620010738162001159565b840191505092915050565b600060208201905081810360008301526200109a81846200103d565b905092915050565b600081519050919050565b600082825260208201905092915050565b60005b83811015620010de578082015181840152602081019050620010c1565b83811115620010ee576000848401525b50505050565b600060028204905060018216806200110d57607f821691505b602082108114156200112457620011236200112a565b5b50919050565b7f4e487b7100000000000000000000000000000000000000000000000000000000600052602260045260246000fd5b6000601f19601f8301169050919050565b613c57806200117a6000396000f3fe608060405234801561001057600080fd5b50600436106101375760003560e01c80636352211e116100b8578063b88d4fde1161007c578063b88d4fde14610374578063c4e41b2214610390578063c575757a146103ae578063c87b56dd146103de578063de9d132f1461040e578063e985e9c51461041857610137565b80636352211e146102aa57806370a08231146102da57806395d89b411461030a578063a22cb46514610328578063b187301f1461034457610137565b806318160ddd116100ff57806318160ddd146101f457806323b872dd146102125780632de38d681461022e57806342842e0e1461025e578063514dc8c61461027a57610137565b806301ffc9a71461013c578063060475901461016c57806306fdde031461018a578063081812fc146101a8578063095ea7b3146101d8575b600080fd5b610156600480360381019061015191906126dd565b610448565b6040516101639190612e46565b60405180910390f35b61017461052a565b60405161018191906130c1565b60405180910390f35b610192610554565b60405161019f9190612e61565b60405180910390f35b6101c260048036038101906101bd919061272f565b6105e6565b6040516101cf9190612db6565b60405180910390f35b6101f260048036038101906101ed91906126a1565b61066b565b005b6101fc610783565b60405161020991906130c1565b60405180910390f35b61022c6004803603810190610227919061259b565b610789565b005b6102486004803603810190610243919061272f565b6107e9565b6040516102559190612e61565b60405180910390f35b6102786004803603810190610273919061259b565b610907565b005b610294600480360381019061028f919061272f565b610927565b6040516102a19190612e61565b60405180910390f35b6102c460048036038101906102bf919061272f565b610a45565b6040516102d19190612db6565b60405180910390f35b6102f460048036038101906102ef9190612536565b610af7565b60405161030191906130c1565b60405180910390f35b610312610baf565b60405161031f9190612e61565b60405180910390f35b610342600480360381019061033d9190612665565b610c41565b005b61035e6004803603810190610359919061272f565b610dc2565b60405161036b9190612e61565b60405180910390f35b61038e600480360381019061038991906125ea565b610ee0565b005b610398610f42565b6040516103a591906130c1565b60405180910390f35b6103c860048036038101906103c3919061272f565b610f4c565b6040516103d59190612e61565b60405180910390f35b6103f860048036038101906103f3919061272f565b61106a565b6040516104059190612e61565b60405180910390f35b6104166111bc565b005b610432600480360381019061042d919061255f565b6113b6565b60405161043f9190612e46565b60405180910390f35b60007f80ac58cd000000000000000000000000000000000000000000000000000000007bffffffffffffffffffffffffffffffffffffffffffffffffffffffff1916827bffffffffffffffffffffffffffffffffffffffffffffffffffffffff1916148061051357507f5b5e139f000000000000000000000000000000000000000000000000000000007bffffffffffffffffffffffffffffffffffffffffffffffffffffffff1916827bffffffffffffffffffffffffffffffffffffffffffffffffffffffff1916145b806105235750610522826114e3565b5b9050919050565b60006001610538600761154d565b600854610545919061326b565b61054f919061326b565b905090565b60606000805461056390613355565b80601f016020809104026020016040519081016040528092919081815260200182805461058f90613355565b80156105dc5780601f106105b1576101008083540402835291602001916105dc565b820191906000526020600020905b8154815290600101906020018083116105bf57829003601f168201915b5050505050905090565b60006105f18261155b565b610630576040517f08c379a000000000000000000000000000000000000000000000000000000000815260040161062790613021565b60405180910390fd5b6004600083815260200190815260200160002060009054906101000a900473ffffffffffffffffffffffffffffffffffffffff169050919050565b600061067682610a45565b90508073ffffffffffffffffffffffffffffffffffffffff168373ffffffffffffffffffffffffffffffffffffffff1614156106e7576040517f08c379a00000000000000000000000000000000000000000000000000000000081526004016106de90613081565b60405180910390fd5b8073ffffffffffffffffffffffffffffffffffffffff166107066115c7565b73ffffffffffffffffffffffffffffffffffffffff16148061073557506107348161072f6115c7565b6113b6565b5b610774576040517f08c379a000000000000000000000000000000000000000000000000000000000815260040161076b90612f61565b60405180910390fd5b61077e83836115cf565b505050565b60085481565b61079a6107946115c7565b82611688565b6107d9576040517f08c379a00000000000000000000000000000000000000000000000000000000081526004016107d0906130a1565b60405180910390fd5b6107e4838383611766565b505050565b6060600061081d6107f9846119c2565b6040516020016108099190612d50565b604051602081830303815290604052611b6f565b9050600b80549050816108309190613401565b9050600b818154811061086c577f4e487b7100000000000000000000000000000000000000000000000000000000600052603260045260246000fd5b90600052602060002001805461088190613355565b80601f01602080910402602001604051908101604052809291908181526020018280546108ad90613355565b80156108fa5780601f106108cf576101008083540402835291602001916108fa565b820191906000526020600020905b8154815290600101906020018083116108dd57829003601f168201915b5050505050915050919050565b61092283838360405180602001604052806000815250610ee0565b505050565b6060600061095b610937846119c2565b6040516020016109479190612d94565b604051602081830303815290604052611b6f565b9050600e805490508161096e9190613401565b9050600e81815481106109aa577f4e487b7100000000000000000000000000000000000000000000000000000000600052603260045260246000fd5b9060005260206000200180546109bf90613355565b80601f01602080910402602001604051908101604052809291908181526020018280546109eb90613355565b8015610a385780601f10610a0d57610100808354040283529160200191610a38565b820191906000526020600020905b815481529060010190602001808311610a1b57829003601f168201915b5050505050915050919050565b6000806002600084815260200190815260200160002060009054906101000a900473ffffffffffffffffffffffffffffffffffffffff169050600073ffffffffffffffffffffffffffffffffffffffff168173ffffffffffffffffffffffffffffffffffffffff161415610aee576040517f08c379a0000000000000000000000000000000000000000000000000000000008152600401610ae590612fa1565b60405180910390fd5b80915050919050565b60008073ffffffffffffffffffffffffffffffffffffffff168273ffffffffffffffffffffffffffffffffffffffff161415610b68576040517f08c379a0000000000000000000000000000000000000000000000000000000008152600401610b5f90612f81565b60405180910390fd5b600360008373ffffffffffffffffffffffffffffffffffffffff1673ffffffffffffffffffffffffffffffffffffffff168152602001908152602001600020549050919050565b606060018054610bbe90613355565b80601f0160208091040260200160405190810160405280929190818152602001828054610bea90613355565b8015610c375780601f10610c0c57610100808354040283529160200191610c37565b820191906000526020600020905b815481529060010190602001808311610c1a57829003601f168201915b5050505050905090565b610c496115c7565b73ffffffffffffffffffffffffffffffffffffffff168273ffffffffffffffffffffffffffffffffffffffff161415610cb7576040517f08c379a0000000000000000000000000000000000000000000000000000000008152600401610cae90612f21565b60405180910390fd5b8060056000610cc46115c7565b73ffffffffffffffffffffffffffffffffffffffff1673ffffffffffffffffffffffffffffffffffffffff16815260200190815260200160002060008473ffffffffffffffffffffffffffffffffffffffff1673ffffffffffffffffffffffffffffffffffffffff16815260200190815260200160002060006101000a81548160ff0219169083151502179055508173ffffffffffffffffffffffffffffffffffffffff16610d716115c7565b73ffffffffffffffffffffffffffffffffffffffff167f17307eab39ab6107e8899845ad3d59bd9653f200f220920489ca2b5937696c3183604051610db69190612e46565b60405180910390a35050565b60606000610df6610dd2846119c2565b604051602001610de29190612ce9565b604051602081830303815290604052611b6f565b9050600c8054905081610e099190613401565b9050600c8181548110610e45577f4e487b7100000000000000000000000000000000000000000000000000000000600052603260045260246000fd5b906000526020600020018054610e5a90613355565b80601f0160208091040260200160405190810160405280929190818152602001828054610e8690613355565b8015610ed35780601f10610ea857610100808354040283529160200191610ed3565b820191906000526020600020905b815481529060010190602001808311610eb657829003601f168201915b5050505050915050919050565b610ef1610eeb6115c7565b83611688565b610f30576040517f08c379a0000000000000000000000000000000000000000000000000000000008152600401610f27906130a1565b60405180910390fd5b610f3c84848484611ba2565b50505050565b6000600854905090565b60606000610f80610f5c846119c2565b604051602001610f6c9190612cc7565b604051602081830303815290604052611b6f565b9050600d8054905081610f939190613401565b9050600d8181548110610fcf577f4e487b7100000000000000000000000000000000000000000000000000000000600052603260045260246000fd5b906000526020600020018054610fe490613355565b80601f016020809104026020016040519081016040528092919081815260200182805461101090613355565b801561105d5780601f106110325761010080835404028352916020019161105d565b820191906000526020600020905b81548152906001019060200180831161104057829003601f168201915b5050505050915050919050565b60606110758261155b565b6110b4576040517f08c379a00000000000000000000000000000000000000000000000000000000081526004016110ab90613001565b60405180910390fd5b60006006600084815260200190815260200160002080546110d490613355565b80601f016020809104026020016040519081016040528092919081815260200182805461110090613355565b801561114d5780601f106111225761010080835404028352916020019161114d565b820191906000526020600020905b81548152906001019060200180831161113057829003601f168201915b50505050509050600061115e611bfe565b90506000815114156111745781925050506111b7565b6000825111156111a9578082604051602001611191929190612c29565b604051602081830303815290604052925050506111b7565b6111b284611c15565b925050505b919050565b60006111c8600761154d565b905060006111d5826107e9565b905060006111e283610dc2565b905060006111ef84610f4c565b9050600083838360405160200161120893929190612c4d565b6040516020818303038152906040529050600061122486610927565b90506000600982600a856040516020016112419493929190612c7e565b604051602081830303815290604052905060006112868461126184611cbc565b604051602001611272929190612d0b565b604051602081830303815290604052611cbc565b905060008160405160200161129b9190612d72565b60405160208183030381529060405290506112ea6040518060400160405280601581526020017f0a2d2d2d2d2d2d2d2d2d2d2d2d2d2d2d2d2d2d2d2d000000000000000000000081525061144a565b6112f38161144a565b6113316040518060400160405280601581526020017f2d2d2d2d2d2d2d2d2d2d2d2d2d2d2d2d2d2d2d2d0a000000000000000000000081525061144a565b61133b338a611e7a565b6113458982611e98565b61134f6007611f0c565b611372604051806060016040528060258152602001613bbd602591398a33611f22565b7febb98688741ffa4c7589bf325de30cf7becb63de567842e1ccdb6cb949fdc82c338a6040516113a3929190612e1d565b60405180910390a1505050505050505050565b6000600560008473ffffffffffffffffffffffffffffffffffffffff1673ffffffffffffffffffffffffffffffffffffffff16815260200190815260200160002060008373ffffffffffffffffffffffffffffffffffffffff1673ffffffffffffffffffffffffffffffffffffffff16815260200190815260200160002060009054906101000a900460ff16905092915050565b6114e08160405160240161145e9190612e61565b6040516020818303038152906040527f41304fac000000000000000000000000000000000000000000000000000000007bffffffffffffffffffffffffffffffffffffffffffffffffffffffff19166020820180517bffffffffffffffffffffffffffffffffffffffffffffffffffffffff8381831617835250505050611fc1565b50565b60007f01ffc9a7000000000000000000000000000000000000000000000000000000007bffffffffffffffffffffffffffffffffffffffffffffffffffffffff1916827bffffffffffffffffffffffffffffffffffffffffffffffffffffffff1916149050919050565b600081600001549050919050565b60008073ffffffffffffffffffffffffffffffffffffffff166002600084815260200190815260200160002060009054906101000a900473ffffffffffffffffffffffffffffffffffffffff1673ffffffffffffffffffffffffffffffffffffffff1614159050919050565b600033905090565b816004600083815260200190815260200160002060006101000a81548173ffffffffffffffffffffffffffffffffffffffff021916908373ffffffffffffffffffffffffffffffffffffffff160217905550808273ffffffffffffffffffffffffffffffffffffffff1661164283610a45565b73ffffffffffffffffffffffffffffffffffffffff167f8c5be1e5ebec7d5bd14f71427d1e84f3dd0314c0f7b2291e5b200ac8c7c3b92560405160405180910390a45050565b60006116938261155b565b6116d2576040517f08c379a00000000000000000000000000000000000000000000000000000000081526004016116c990612f41565b60405180910390fd5b60006116dd83610a45565b90508073ffffffffffffffffffffffffffffffffffffffff168473ffffffffffffffffffffffffffffffffffffffff16148061174c57508373ffffffffffffffffffffffffffffffffffffffff16611734846105e6565b73ffffffffffffffffffffffffffffffffffffffff16145b8061175d575061175c81856113b6565b5b91505092915050565b8273ffffffffffffffffffffffffffffffffffffffff1661178682610a45565b73ffffffffffffffffffffffffffffffffffffffff16146117dc576040517f08c379a00000000000000000000000000000000000000000000000000000000081526004016117d390613041565b60405180910390fd5b600073ffffffffffffffffffffffffffffffffffffffff168273ffffffffffffffffffffffffffffffffffffffff16141561184c576040517f08c379a000000000000000000000000000000000000000000000000000000000815260040161184390612f01565b60405180910390fd5b611857838383611fea565b6118626000826115cf565b6001600360008573ffffffffffffffffffffffffffffffffffffffff1673ffffffffffffffffffffffffffffffffffffffff16815260200190815260200160002060008282546118b2919061326b565b925050819055506001600360008473ffffffffffffffffffffffffffffffffffffffff1673ffffffffffffffffffffffffffffffffffffffff1681526020019081526020016000206000828254611909919061318a565b92505081905550816002600083815260200190815260200160002060006101000a81548173ffffffffffffffffffffffffffffffffffffffff021916908373ffffffffffffffffffffffffffffffffffffffff160217905550808273ffffffffffffffffffffffffffffffffffffffff168473ffffffffffffffffffffffffffffffffffffffff167fddf252ad1be2c89b69c2b068fc378daa952ba7f163c4a11628f55a4df523b3ef60405160405180910390a4505050565b60606000821415611a0a576040518060400160405280600181526020017f30000000000000000000000000000000000000000000000000000000000000008152509050611b6a565b600082905060005b60008214611a3c578080611a25906133b8565b915050600a82611a3591906131e0565b9150611a12565b60008167ffffffffffffffff811115611a7e577f4e487b7100000000000000000000000000000000000000000000000000000000600052604160045260246000fd5b6040519080825280601f01601f191660200182016040528015611ab05781602001600182028036833780820191505090505b5090505b60008514611b6357600182611ac9919061326b565b9150600a85611ad89190613401565b6030611ae4919061318a565b60f81b818381518110611b20577f4e487b7100000000000000000000000000000000000000000000000000000000600052603260045260246000fd5b60200101907effffffffffffffffffffffffffffffffffffffffffffffffffffffffffffff1916908160001a905350600a85611b5c91906131e0565b9450611ab4565b8093505050505b919050565b600081604051602001611b829190612c12565b6040516020818303038152906040528051906020012060001c9050919050565b611bad848484611766565b611bb984848484611fef565b611bf8576040517f08c379a0000000000000000000000000000000000000000000000000000000008152600401611bef90612ec1565b60405180910390fd5b50505050565b606060405180602001604052806000815250905090565b6060611c208261155b565b611c5f576040517f08c379a0000000000000000000000000000000000000000000000000000000008152600401611c5690613061565b60405180910390fd5b6000611c69611bfe565b90506000815111611c895760405180602001604052806000815250611cb4565b80611c93846119c2565b604051602001611ca4929190612c29565b6040516020818303038152906040525b915050919050565b60606000825190506000811415611ce55760405180602001604052806000815250915050611e75565b60006003600283611cf6919061318a565b611d0091906131e0565b6004611d0c9190613211565b90506000602082611d1d919061318a565b67ffffffffffffffff811115611d5c577f4e487b7100000000000000000000000000000000000000000000000000000000600052604160045260246000fd5b6040519080825280601f01601f191660200182016040528015611d8e5781602001600182028036833780820191505090505b5090506000604051806060016040528060408152602001613be2604091399050600181016020830160005b86811015611e325760038101905062ffffff818a015116603f8160121c168401518060081b905060ff603f83600c1c1686015116810190508060081b905060ff603f8360061c1686015116810190508060081b905060ff603f831686015116810190508060e01b90508084526004840193505050611db9565b506003860660018114611e4c5760028114611e5c57611e67565b613d3d60f01b6002830352611e67565b603d60f81b60018303525b508484525050819450505050505b919050565b611e94828260405180602001604052806000815250612186565b5050565b611ea18261155b565b611ee0576040517f08c379a0000000000000000000000000000000000000000000000000000000008152600401611ed790612fc1565b60405180910390fd5b80600660008481526020019081526020016000209080519060200190611f079291906123c2565b505050565b6001816000016000828254019250508190555050565b611fbc838383604051602401611f3a93929190612e83565b6040516020818303038152906040527fe3849f79000000000000000000000000000000000000000000000000000000007bffffffffffffffffffffffffffffffffffffffffffffffffffffffff19166020820180517bffffffffffffffffffffffffffffffffffffffffffffffffffffffff8381831617835250505050611fc1565b505050565b60008151905060006a636f6e736f6c652e6c6f679050602083016000808483855afa5050505050565b505050565b60006120108473ffffffffffffffffffffffffffffffffffffffff166121e1565b15612179578373ffffffffffffffffffffffffffffffffffffffff1663150b7a026120396115c7565b8786866040518563ffffffff1660e01b815260040161205b9493929190612dd1565b602060405180830381600087803b15801561207557600080fd5b505af19250505080156120a657506040513d601f19601f820116820180604052508101906120a39190612706565b60015b612129573d80600081146120d6576040519150601f19603f3d011682016040523d82523d6000602084013e6120db565b606091505b50600081511415612121576040517f08c379a000000000000000000000000000000000000000000000000000000000815260040161211890612ec1565b60405180910390fd5b805181602001fd5b63150b7a0260e01b7bffffffffffffffffffffffffffffffffffffffffffffffffffffffff1916817bffffffffffffffffffffffffffffffffffffffffffffffffffffffff19161491505061217e565b600190505b949350505050565b61219083836121f4565b61219d6000848484611fef565b6121dc576040517f08c379a00000000000000000000000000000000000000000000000000000000081526004016121d390612ec1565b60405180910390fd5b505050565b600080823b905060008111915050919050565b600073ffffffffffffffffffffffffffffffffffffffff168273ffffffffffffffffffffffffffffffffffffffff161415612264576040517f08c379a000000000000000000000000000000000000000000000000000000000815260040161225b90612fe1565b60405180910390fd5b61226d8161155b565b156122ad576040517f08c379a00000000000000000000000000000000000000000000000000000000081526004016122a490612ee1565b60405180910390fd5b6122b960008383611fea565b6001600360008473ffffffffffffffffffffffffffffffffffffffff1673ffffffffffffffffffffffffffffffffffffffff1681526020019081526020016000206000828254612309919061318a565b92505081905550816002600083815260200190815260200160002060006101000a81548173ffffffffffffffffffffffffffffffffffffffff021916908373ffffffffffffffffffffffffffffffffffffffff160217905550808273ffffffffffffffffffffffffffffffffffffffff16600073ffffffffffffffffffffffffffffffffffffffff167fddf252ad1be2c89b69c2b068fc378daa952ba7f163c4a11628f55a4df523b3ef60405160405180910390a45050565b8280546123ce90613355565b90600052602060002090601f0160209004810192826123f05760008555612437565b82601f1061240957805160ff1916838001178555612437565b82800160010185558215612437579182015b8281111561243657825182559160200191906001019061241b565b5b5090506124449190612448565b5090565b5b80821115612461576000816000905550600101612449565b5090565b600061247861247384613101565b6130dc565b90508281526020810184848401111561249057600080fd5b61249b848285613313565b509392505050565b6000813590506124b281613b60565b92915050565b6000813590506124c781613b77565b92915050565b6000813590506124dc81613b8e565b92915050565b6000815190506124f181613b8e565b92915050565b600082601f83011261250857600080fd5b8135612518848260208601612465565b91505092915050565b60008135905061253081613ba5565b92915050565b60006020828403121561254857600080fd5b6000612556848285016124a3565b91505092915050565b6000806040838503121561257257600080fd5b6000612580858286016124a3565b9250506020612591858286016124a3565b9150509250929050565b6000806000606084860312156125b057600080fd5b60006125be868287016124a3565b93505060206125cf868287016124a3565b92505060406125e086828701612521565b9150509250925092565b6000806000806080858703121561260057600080fd5b600061260e878288016124a3565b945050602061261f878288016124a3565b935050604061263087828801612521565b925050606085013567ffffffffffffffff81111561264d57600080fd5b612659878288016124f7565b91505092959194509250565b6000806040838503121561267857600080fd5b6000612686858286016124a3565b9250506020612697858286016124b8565b9150509250929050565b600080604083850312156126b457600080fd5b60006126c2858286016124a3565b92505060206126d385828601612521565b9150509250929050565b6000602082840312156126ef57600080fd5b60006126fd848285016124cd565b91505092915050565b60006020828403121561271857600080fd5b6000612726848285016124e2565b91505092915050565b60006020828403121561274157600080fd5b600061274f84828501612521565b91505092915050565b6127618161329f565b82525050565b612770816132b1565b82525050565b600061278182613147565b61278b818561315d565b935061279b818560208601613322565b6127a4816134ee565b840191505092915050565b60006127ba82613152565b6127c4818561316e565b93506127d4818560208601613322565b6127dd816134ee565b840191505092915050565b60006127f382613152565b6127fd818561317f565b935061280d818560208601613322565b80840191505092915050565b6000815461282681613355565b612830818661317f565b9450600182166000811461284b576001811461285c5761288f565b60ff1983168652818601935061288f565b61286585613132565b60005b8381101561288757815481890152600182019150602081019050612868565b838801955050505b50505092915050565b60006128a560328361316e565b91506128b0826134ff565b604082019050919050565b60006128c8601c8361316e565b91506128d38261354e565b602082019050919050565b60006128eb600a8361317f565b91506128f682613577565b600a82019050919050565b600061290e60248361316e565b9150612919826135a0565b604082019050919050565b600061293160198361316e565b915061293c826135ef565b602082019050919050565b6000612954600b8361317f565b915061295f82613618565b600b82019050919050565b6000612977602c8361316e565b915061298282613641565b604082019050919050565b600061299a600d8361317f565b91506129a582613690565b600d82019050919050565b60006129bd60388361316e565b91506129c8826136b9565b604082019050919050565b60006129e0602a8361316e565b91506129eb82613708565b604082019050919050565b6000612a0360298361316e565b9150612a0e82613757565b604082019050919050565b6000612a26602e8361316e565b9150612a31826137a6565b604082019050919050565b6000612a4960678361317f565b9150612a54826137f5565b606782019050919050565b6000612a6c60028361317f565b9150612a7782613890565b600282019050919050565b6000612a8f60208361316e565b9150612a9a826138b9565b602082019050919050565b6000612ab260318361316e565b9150612abd826138e2565b604082019050919050565b6000612ad5602c8361316e565b9150612ae082613931565b604082019050919050565b6000612af860298361316e565b9150612b0382613980565b604082019050919050565b6000612b1b602f8361316e565b9150612b26826139cf565b604082019050919050565b6000612b3e600a8361317f565b9150612b4982613a1e565b600a82019050919050565b6000612b6160218361316e565b9150612b6c82613a47565b604082019050919050565b6000612b84600a8361317f565b9150612b8f82613a96565b600a82019050919050565b6000612ba7601d8361317f565b9150612bb282613abf565b601d82019050919050565b6000612bca60318361316e565b9150612bd582613ae8565b604082019050919050565b6000612bed60058361317f565b9150612bf882613b37565b600582019050919050565b612c0c81613309565b82525050565b6000612c1e82846127e8565b915081905092915050565b6000612c3582856127e8565b9150612c4182846127e8565b91508190509392505050565b6000612c5982866127e8565b9150612c6582856127e8565b9150612c7182846127e8565b9150819050949350505050565b6000612c8a8287612819565b9150612c9682866127e8565b9150612ca28285612819565b9150612cae82846127e8565b9150612cb98261298d565b915081905095945050505050565b6000612cd2826128de565b9150612cde82846127e8565b915081905092915050565b6000612cf482612947565b9150612d0082846127e8565b915081905092915050565b6000612d1682612b31565b9150612d2282856127e8565b9150612d2d82612a3c565b9150612d3982846127e8565b9150612d4482612a5f565b91508190509392505050565b6000612d5b82612b77565b9150612d6782846127e8565b915081905092915050565b6000612d7d82612b9a565b9150612d8982846127e8565b915081905092915050565b6000612d9f82612be0565b9150612dab82846127e8565b915081905092915050565b6000602082019050612dcb6000830184612758565b92915050565b6000608082019050612de66000830187612758565b612df36020830186612758565b612e006040830185612c03565b8181036060830152612e128184612776565b905095945050505050565b6000604082019050612e326000830185612758565b612e3f6020830184612c03565b9392505050565b6000602082019050612e5b6000830184612767565b92915050565b60006020820190508181036000830152612e7b81846127af565b905092915050565b60006060820190508181036000830152612e9d81866127af565b9050612eac6020830185612c03565b612eb96040830184612758565b949350505050565b60006020820190508181036000830152612eda81612898565b9050919050565b60006020820190508181036000830152612efa816128bb565b9050919050565b60006020820190508181036000830152612f1a81612901565b9050919050565b60006020820190508181036000830152612f3a81612924565b9050919050565b60006020820190508181036000830152612f5a8161296a565b9050919050565b60006020820190508181036000830152612f7a816129b0565b9050919050565b60006020820190508181036000830152612f9a816129d3565b9050919050565b60006020820190508181036000830152612fba816129f6565b9050919050565b60006020820190508181036000830152612fda81612a19565b9050919050565b60006020820190508181036000830152612ffa81612a82565b9050919050565b6000602082019050818103600083015261301a81612aa5565b9050919050565b6000602082019050818103600083015261303a81612ac8565b9050919050565b6000602082019050818103600083015261305a81612aeb565b9050919050565b6000602082019050818103600083015261307a81612b0e565b9050919050565b6000602082019050818103600083015261309a81612b54565b9050919050565b600060208201905081810360008301526130ba81612bbd565b9050919050565b60006020820190506130d66000830184612c03565b92915050565b60006130e66130f7565b90506130f28282613387565b919050565b6000604051905090565b600067ffffffffffffffff82111561311c5761311b6134bf565b5b613125826134ee565b9050602081019050919050565b60008190508160005260206000209050919050565b600081519050919050565b600081519050919050565b600082825260208201905092915050565b600082825260208201905092915050565b600081905092915050565b600061319582613309565b91506131a083613309565b9250827fffffffffffffffffffffffffffffffffffffffffffffffffffffffffffffffff038211156131d5576131d4613432565b5b828201905092915050565b60006131eb82613309565b91506131f683613309565b92508261320657613205613461565b5b828204905092915050565b600061321c82613309565b915061322783613309565b9250817fffffffffffffffffffffffffffffffffffffffffffffffffffffffffffffffff04831182151516156132605761325f613432565b5b828202905092915050565b600061327682613309565b915061328183613309565b92508282101561329457613293613432565b5b828203905092915050565b60006132aa826132e9565b9050919050565b60008115159050919050565b60007fffffffff0000000000000000000000000000000000000000000000000000000082169050919050565b600073ffffffffffffffffffffffffffffffffffffffff82169050919050565b6000819050919050565b82818337600083830152505050565b60005b83811015613340578082015181840152602081019050613325565b8381111561334f576000848401525b50505050565b6000600282049050600182168061336d57607f821691505b6020821081141561338157613380613490565b5b50919050565b613390826134ee565b810181811067ffffffffffffffff821117156133af576133ae6134bf565b5b80604052505050565b60006133c382613309565b91507fffffffffffffffffffffffffffffffffffffffffffffffffffffffffffffffff8214156133f6576133f5613432565b5b600182019050919050565b600061340c82613309565b915061341783613309565b92508261342757613426613461565b5b828206905092915050565b7f4e487b7100000000000000000000000000000000000000000000000000000000600052601160045260246000fd5b7f4e487b7100000000000000000000000000000000000000000000000000000000600052601260045260246000fd5b7f4e487b7100000000000000000000000000000000000000000000000000000000600052602260045260246000fd5b7f4e487b7100000000000000000000000000000000000000000000000000000000600052604160045260246000fd5b6000601f19601f8301169050919050565b7f4552433732313a207472616e7366657220746f206e6f6e20455243373231526560008201527f63656976657220696d706c656d656e7465720000000000000000000000000000602082015250565b7f4552433732313a20746f6b656e20616c7265616479206d696e74656400000000600082015250565b7f54484952445f574f524400000000000000000000000000000000000000000000600082015250565b7f4552433732313a207472616e7366657220746f20746865207a65726f2061646460008201527f7265737300000000000000000000000000000000000000000000000000000000602082015250565b7f4552433732313a20617070726f766520746f2063616c6c657200000000000000600082015250565b7f5345434f4e445f574f5244000000000000000000000000000000000000000000600082015250565b7f4552433732313a206f70657261746f7220717565727920666f72206e6f6e657860008201527f697374656e7420746f6b656e0000000000000000000000000000000000000000602082015250565b7f3c2f746578743e3c2f7376673e00000000000000000000000000000000000000600082015250565b7f4552433732313a20617070726f76652063616c6c6572206973206e6f74206f7760008201527f6e6572206e6f7220617070726f76656420666f7220616c6c0000000000000000602082015250565b7f4552433732313a2062616c616e636520717565727920666f7220746865207a6560008201527f726f206164647265737300000000000000000000000000000000000000000000602082015250565b7f4552433732313a206f776e657220717565727920666f72206e6f6e657869737460008201527f656e7420746f6b656e0000000000000000000000000000000000000000000000602082015250565b7f45524337323155524953746f726167653a2055524920736574206f66206e6f6e60008201527f6578697374656e7420746f6b656e000000000000000000000000000000000000602082015250565b7f222c20226465736372697074696f6e223a202241207375706572207369636b2060008201527f636f6c6c656374696f6e206f66207371756172657320616e6420776f7264732e60208201527f222c2022696d616765223a2022646174613a696d6167652f7376672b786d6c3b60408201527f6261736536342c00000000000000000000000000000000000000000000000000606082015250565b7f227d000000000000000000000000000000000000000000000000000000000000600082015250565b7f4552433732313a206d696e7420746f20746865207a65726f2061646472657373600082015250565b7f45524337323155524953746f726167653a2055524920717565727920666f722060008201527f6e6f6e6578697374656e7420746f6b656e000000000000000000000000000000602082015250565b7f4552433732313a20617070726f76656420717565727920666f72206e6f6e657860008201527f697374656e7420746f6b656e0000000000000000000000000000000000000000602082015250565b7f4552433732313a207472616e73666572206f6620746f6b656e2074686174206960008201527f73206e6f74206f776e0000000000000000000000000000000000000000000000602082015250565b7f4552433732314d657461646174613a2055524920717565727920666f72206e6f60008201527f6e6578697374656e7420746f6b656e0000000000000000000000000000000000602082015250565b7f7b226e616d65223a202200000000000000000000000000000000000000000000600082015250565b7f4552433732313a20617070726f76616c20746f2063757272656e74206f776e6560008201527f7200000000000000000000000000000000000000000000000000000000000000602082015250565b7f46495253545f574f524400000000000000000000000000000000000000000000600082015250565b7f646174613a6170706c69636174696f6e2f6a736f6e3b6261736536342c000000600082015250565b7f4552433732313a207472616e736665722063616c6c6572206973206e6f74206f60008201527f776e6572206e6f7220617070726f766564000000000000000000000000000000602082015250565b7f434f4c4f52000000000000000000000000000000000000000000000000000000600082015250565b613b698161329f565b8114613b7457600080fd5b50565b613b80816132b1565b8114613b8b57600080fd5b50565b613b97816132bd565b8114613ba257600080fd5b50565b613bae81613309565b8114613bb957600080fd5b5056fe416e204e465420772f20494420257320686173206265656e206d696e74656420746f2025734142434445464748494a4b4c4d4e4f505152535455565758595a6162636465666768696a6b6c6d6e6f707172737475767778797a303132333435363738392b2fa264697066735822122052a32bad9b09a8575305486e6a405fc0bf540f484d9c6443e42ee2fd0e81dac364736f6c634300080400333c73766720786d6c6e733d27687474703a2f2f7777772e77332e6f72672f323030302f73766727207072657365727665417370656374526174696f3d27784d696e594d696e206d656574272076696577426f783d273020302033353020333530273e3c7374796c653e2e62617365207b2066696c6c3a2077686974653b20666f6e742d66616d696c793a2073657269663b20666f6e742d73697a653a20323470783b207d3c2f7374796c653e3c726563742077696474683d273130302527206865696768743d2731303025272066696c6c3d27272f3e3c7465787420783d273530252720793d273530252720636c6173733d27626173652720646f6d696e616e742d626173656c696e653d276d6964646c652720746578742d616e63686f723d276d6964646c65273e",
  "linkReferences": {},
  "deployedLinkReferences": {}
}